{
  "_format": "hh-sol-artifact-1",
  "contractName": "HospitalEscrow",
  "sourceName": "contracts/HospitalEscrow.sol",
  "abi": [
    {
      "inputs": [
        {
          "internalType": "address",
          "name": "_nftAddress",
          "type": "address"
        },
        {
          "internalType": "address",
          "name": "_hospitalAdmin",
          "type": "address"
        },
        {
          "internalType": "address",
          "name": "_storeManager",
          "type": "address"
        }
      ],
      "stateMutability": "nonpayable",
      "type": "constructor"
    },
    {
      "anonymous": false,
      "inputs": [
        {
          "indexed": true,
          "internalType": "uint256",
          "name": "requestId",
          "type": "uint256"
        },
        {
          "indexed": true,
          "internalType": "address",
          "name": "hospitalAdmin",
          "type": "address"
        },
        {
          "indexed": false,
          "internalType": "uint256",
          "name": "timestamp",
          "type": "uint256"
        }
      ],
      "name": "AdminApproved",
      "type": "event"
    },
    {
      "anonymous": false,
      "inputs": [
        {
          "indexed": true,
          "internalType": "uint256",
          "name": "requestId",
          "type": "uint256"
        },
        {
          "indexed": true,
          "internalType": "uint256",
          "name": "assetId",
          "type": "uint256"
        },
        {
          "indexed": true,
          "internalType": "address",
          "name": "wardAuthority",
          "type": "address"
        },
        {
          "indexed": false,
          "internalType": "string",
          "name": "wardName",
          "type": "string"
        },
        {
          "indexed": false,
          "internalType": "string",
          "name": "patientId",
          "type": "string"
        },
        {
          "indexed": false,
          "internalType": "uint256",
          "name": "quantity",
          "type": "uint256"
        },
        {
          "indexed": false,
          "internalType": "uint256",
          "name": "timestamp",
          "type": "uint256"
        }
      ],
      "name": "AssetIssued",
      "type": "event"
    },
    {
      "anonymous": false,
      "inputs": [
        {
          "indexed": true,
          "internalType": "uint256",
          "name": "requestId",
          "type": "uint256"
        },
        {
          "indexed": true,
          "internalType": "uint256",
          "name": "assetId",
          "type": "uint256"
        },
        {
          "indexed": true,
          "internalType": "address",
          "name": "wardAuthority",
          "type": "address"
        },
        {
          "indexed": false,
          "internalType": "string",
          "name": "wardName",
          "type": "string"
        },
        {
          "indexed": false,
          "internalType": "uint256",
          "name": "quantity",
          "type": "uint256"
        },
        {
          "indexed": false,
          "internalType": "uint256",
          "name": "timestamp",
          "type": "uint256"
        }
      ],
      "name": "IssuanceRequested",
      "type": "event"
    },
    {
      "anonymous": false,
      "inputs": [
        {
          "indexed": true,
          "internalType": "uint256",
          "name": "procurementId",
          "type": "uint256"
        },
        {
          "indexed": true,
          "internalType": "address",
          "name": "hospitalAdmin",
          "type": "address"
        },
        {
          "indexed": false,
          "internalType": "uint256",
          "name": "timestamp",
          "type": "uint256"
        }
      ],
      "name": "ProcurementApproved",
      "type": "event"
    },
    {
      "anonymous": false,
      "inputs": [
        {
          "indexed": true,
          "internalType": "uint256",
          "name": "procurementId",
          "type": "uint256"
        },
        {
          "indexed": true,
          "internalType": "address",
          "name": "hospitalAdmin",
          "type": "address"
        },
        {
          "indexed": false,
          "internalType": "string",
          "name": "reason",
          "type": "string"
        },
        {
          "indexed": false,
          "internalType": "uint256",
          "name": "timestamp",
          "type": "uint256"
        }
      ],
      "name": "ProcurementRejected",
      "type": "event"
    },
    {
      "anonymous": false,
      "inputs": [
        {
          "indexed": true,
          "internalType": "uint256",
          "name": "procurementId",
          "type": "uint256"
        },
        {
          "indexed": true,
          "internalType": "address",
          "name": "storeManager",
          "type": "address"
        },
        {
          "indexed": false,
          "internalType": "string",
          "name": "itemName",
          "type": "string"
        },
        {
          "indexed": false,
          "internalType": "uint256",
          "name": "quantity",
          "type": "uint256"
        },
        {
          "indexed": false,
          "internalType": "string",
          "name": "urgency",
          "type": "string"
        },
        {
          "indexed": false,
          "internalType": "uint256",
          "name": "timestamp",
          "type": "uint256"
        }
      ],
      "name": "ProcurementRequested",
      "type": "event"
    },
    {
      "anonymous": false,
      "inputs": [
        {
          "indexed": true,
          "internalType": "uint256",
          "name": "requestId",
          "type": "uint256"
        },
        {
          "indexed": true,
          "internalType": "address",
          "name": "cancelledBy",
          "type": "address"
        },
        {
          "indexed": false,
          "internalType": "string",
          "name": "reason",
          "type": "string"
        }
      ],
      "name": "RequestCancelled",
      "type": "event"
    },
    {
      "anonymous": false,
      "inputs": [
        {
          "indexed": true,
          "internalType": "uint256",
          "name": "requestId",
          "type": "uint256"
        },
        {
          "indexed": true,
          "internalType": "address",
          "name": "storeManager",
          "type": "address"
        },
        {
          "indexed": false,
          "internalType": "uint256",
          "name": "timestamp",
          "type": "uint256"
        }
      ],
      "name": "StoreApproved",
      "type": "event"
    },
    {
      "inputs": [
        {
          "internalType": "uint256",
          "name": "_requestId",
          "type": "uint256"
        }
      ],
      "name": "approveByAdmin",
      "outputs": [],
      "stateMutability": "nonpayable",
      "type": "function"
    },
    {
      "inputs": [
        {
          "internalType": "uint256",
          "name": "_requestId",
          "type": "uint256"
        }
      ],
      "name": "approveByStore",
      "outputs": [],
      "stateMutability": "nonpayable",
      "type": "function"
    },
    {
      "inputs": [
        {
          "internalType": "uint256",
          "name": "_procurementId",
          "type": "uint256"
        },
        {
          "internalType": "string",
          "name": "_response",
          "type": "string"
        }
      ],
      "name": "approveProcurementRequest",
      "outputs": [],
      "stateMutability": "nonpayable",
      "type": "function"
    },
    {
      "inputs": [
        {
          "internalType": "uint256",
          "name": "_requestId",
          "type": "uint256"
        },
        {
          "internalType": "string",
          "name": "_reason",
          "type": "string"
        }
      ],
      "name": "cancelRequest",
      "outputs": [],
      "stateMutability": "nonpayable",
      "type": "function"
    },
    {
      "inputs": [
        {
          "internalType": "string",
          "name": "_itemName",
          "type": "string"
        },
        {
          "internalType": "string",
          "name": "_itemType",
          "type": "string"
        },
        {
          "internalType": "uint256",
          "name": "_quantity",
          "type": "uint256"
        },
        {
          "internalType": "string",
          "name": "_reason",
          "type": "string"
        },
        {
          "internalType": "string",
          "name": "_urgency",
          "type": "string"
        },
        {
          "internalType": "string",
          "name": "_additionalNotes",
          "type": "string"
        }
      ],
      "name": "createProcurementRequest",
      "outputs": [
        {
          "internalType": "uint256",
          "name": "",
          "type": "uint256"
        }
      ],
      "stateMutability": "nonpayable",
      "type": "function"
    },
    {
      "inputs": [
        {
          "internalType": "uint256",
          "name": "_requestId",
          "type": "uint256"
        }
      ],
      "name": "getIssuanceRequest",
      "outputs": [
        {
          "components": [
            {
              "internalType": "uint256",
              "name": "assetId",
              "type": "uint256"
            },
            {
              "internalType": "address",
              "name": "wardAuthority",
              "type": "address"
            },
            {
              "internalType": "string",
              "name": "wardName",
              "type": "string"
            },
            {
              "internalType": "string",
              "name": "patientId",
              "type": "string"
            },
            {
              "internalType": "uint256",
              "name": "requestedQuantity",
              "type": "uint256"
            },
            {
              "internalType": "uint256",
              "name": "issuedQuantity",
              "type": "uint256"
            },
            {
              "internalType": "uint256",
              "name": "requestTimestamp",
              "type": "uint256"
            },
            {
              "internalType": "uint256",
              "name": "issuedTimestamp",
              "type": "uint256"
            },
            {
              "internalType": "bool",
              "name": "isPending",
              "type": "bool"
            },
            {
              "internalType": "bool",
              "name": "storeApproved",
              "type": "bool"
            },
            {
              "internalType": "bool",
              "name": "adminApproved",
              "type": "bool"
            },
            {
              "internalType": "bool",
              "name": "isIssued",
              "type": "bool"
            },
            {
              "internalType": "string",
              "name": "remarks",
              "type": "string"
            }
          ],
          "internalType": "struct HospitalEscrow.IssuanceRequest",
          "name": "",
          "type": "tuple"
        }
      ],
      "stateMutability": "view",
      "type": "function"
    },
    {
      "inputs": [],
      "name": "getPendingProcurementRequests",
      "outputs": [
        {
          "internalType": "uint256[]",
          "name": "",
          "type": "uint256[]"
        }
      ],
      "stateMutability": "view",
      "type": "function"
    },
    {
      "inputs": [],
      "name": "getPendingRequests",
      "outputs": [
        {
          "internalType": "uint256[]",
          "name": "",
          "type": "uint256[]"
        }
      ],
      "stateMutability": "view",
      "type": "function"
    },
    {
      "inputs": [
        {
          "internalType": "uint256",
          "name": "_procurementId",
          "type": "uint256"
        }
      ],
      "name": "getProcurementRequest",
      "outputs": [
        {
          "components": [
            {
              "internalType": "uint256",
              "name": "requestId",
              "type": "uint256"
            },
            {
              "internalType": "address",
              "name": "storeManager",
              "type": "address"
            },
            {
              "internalType": "string",
              "name": "itemName",
              "type": "string"
            },
            {
              "internalType": "string",
              "name": "itemType",
              "type": "string"
            },
            {
              "internalType": "uint256",
              "name": "quantity",
              "type": "uint256"
            },
            {
              "internalType": "string",
              "name": "reason",
              "type": "string"
            },
            {
              "internalType": "string",
              "name": "urgency",
              "type": "string"
            },
            {
              "internalType": "string",
              "name": "additionalNotes",
              "type": "string"
            },
            {
              "internalType": "uint256",
              "name": "requestTimestamp",
              "type": "uint256"
            },
            {
              "internalType": "uint256",
              "name": "approvedTimestamp",
              "type": "uint256"
            },
            {
              "internalType": "bool",
              "name": "isPending",
              "type": "bool"
            },
            {
              "internalType": "bool",
              "name": "isApproved",
              "type": "bool"
            },
            {
              "internalType": "bool",
              "name": "isRejected",
              "type": "bool"
            },
            {
              "internalType": "string",
              "name": "hospitalResponse",
              "type": "string"
            }
          ],
          "internalType": "struct HospitalEscrow.ProcurementRequest",
          "name": "",
          "type": "tuple"
        }
      ],
      "stateMutability": "view",
      "type": "function"
    },
    {
      "inputs": [
        {
          "internalType": "address",
          "name": "_storeManager",
          "type": "address"
        }
      ],
      "name": "getStoreManagerProcurementRequests",
      "outputs": [
        {
          "internalType": "uint256[]",
          "name": "",
          "type": "uint256[]"
        }
      ],
      "stateMutability": "view",
      "type": "function"
    },
    {
      "inputs": [
        {
          "internalType": "address",
          "name": "_wardAuthority",
          "type": "address"
        }
      ],
      "name": "getWardRequests",
      "outputs": [
        {
          "internalType": "uint256[]",
          "name": "",
          "type": "uint256[]"
        }
      ],
      "stateMutability": "view",
      "type": "function"
    },
    {
      "inputs": [],
      "name": "hospitalAdmin",
      "outputs": [
        {
          "internalType": "address",
          "name": "",
          "type": "address"
        }
      ],
      "stateMutability": "view",
      "type": "function"
    },
    {
      "inputs": [
        {
          "internalType": "uint256",
          "name": "",
          "type": "uint256"
        }
      ],
      "name": "issuanceRequests",
      "outputs": [
        {
          "internalType": "uint256",
          "name": "assetId",
          "type": "uint256"
        },
        {
          "internalType": "address",
          "name": "wardAuthority",
          "type": "address"
        },
        {
          "internalType": "string",
          "name": "wardName",
          "type": "string"
        },
        {
          "internalType": "string",
          "name": "patientId",
          "type": "string"
        },
        {
          "internalType": "uint256",
          "name": "requestedQuantity",
          "type": "uint256"
        },
        {
          "internalType": "uint256",
          "name": "issuedQuantity",
          "type": "uint256"
        },
        {
          "internalType": "uint256",
          "name": "requestTimestamp",
          "type": "uint256"
        },
        {
          "internalType": "uint256",
          "name": "issuedTimestamp",
          "type": "uint256"
        },
        {
          "internalType": "bool",
          "name": "isPending",
          "type": "bool"
        },
        {
          "internalType": "bool",
          "name": "storeApproved",
          "type": "bool"
        },
        {
          "internalType": "bool",
          "name": "adminApproved",
          "type": "bool"
        },
        {
          "internalType": "bool",
          "name": "isIssued",
          "type": "bool"
        },
        {
          "internalType": "string",
          "name": "remarks",
          "type": "string"
        }
      ],
      "stateMutability": "view",
      "type": "function"
    },
    {
      "inputs": [
        {
          "internalType": "uint256",
          "name": "_requestId",
          "type": "uint256"
        }
      ],
      "name": "issueAsset",
      "outputs": [],
      "stateMutability": "nonpayable",
      "type": "function"
    },
    {
      "inputs": [],
      "name": "nftAddress",
      "outputs": [
        {
          "internalType": "address",
          "name": "",
          "type": "address"
        }
      ],
      "stateMutability": "view",
      "type": "function"
    },
    {
      "inputs": [],
      "name": "procurementCounter",
      "outputs": [
        {
          "internalType": "uint256",
          "name": "",
          "type": "uint256"
        }
      ],
      "stateMutability": "view",
      "type": "function"
    },
    {
      "inputs": [
        {
          "internalType": "uint256",
          "name": "",
          "type": "uint256"
        }
      ],
      "name": "procurementRequests",
      "outputs": [
        {
          "internalType": "uint256",
          "name": "requestId",
          "type": "uint256"
        },
        {
          "internalType": "address",
          "name": "storeManager",
          "type": "address"
        },
        {
          "internalType": "string",
          "name": "itemName",
          "type": "string"
        },
        {
          "internalType": "string",
          "name": "itemType",
          "type": "string"
        },
        {
          "internalType": "uint256",
          "name": "quantity",
          "type": "uint256"
        },
        {
          "internalType": "string",
          "name": "reason",
          "type": "string"
        },
        {
          "internalType": "string",
          "name": "urgency",
          "type": "string"
        },
        {
          "internalType": "string",
          "name": "additionalNotes",
          "type": "string"
        },
        {
          "internalType": "uint256",
          "name": "requestTimestamp",
          "type": "uint256"
        },
        {
          "internalType": "uint256",
          "name": "approvedTimestamp",
          "type": "uint256"
        },
        {
          "internalType": "bool",
          "name": "isPending",
          "type": "bool"
        },
        {
          "internalType": "bool",
          "name": "isApproved",
          "type": "bool"
        },
        {
          "internalType": "bool",
          "name": "isRejected",
          "type": "bool"
        },
        {
          "internalType": "string",
          "name": "hospitalResponse",
          "type": "string"
        }
      ],
      "stateMutability": "view",
      "type": "function"
    },
    {
      "inputs": [
        {
          "internalType": "uint256",
          "name": "_procurementId",
          "type": "uint256"
        },
        {
          "internalType": "string",
          "name": "_reason",
          "type": "string"
        }
      ],
      "name": "rejectProcurementRequest",
      "outputs": [],
      "stateMutability": "nonpayable",
      "type": "function"
    },
    {
      "inputs": [
        {
          "internalType": "uint256",
          "name": "_assetId",
          "type": "uint256"
        },
        {
          "internalType": "string",
          "name": "_wardName",
          "type": "string"
        },
        {
          "internalType": "string",
          "name": "_patientId",
          "type": "string"
        },
        {
          "internalType": "uint256",
          "name": "_quantity",
          "type": "uint256"
        },
        {
          "internalType": "string",
          "name": "_remarks",
          "type": "string"
        }
      ],
      "name": "requestAsset",
      "outputs": [
        {
          "internalType": "uint256",
          "name": "",
          "type": "uint256"
        }
      ],
      "stateMutability": "nonpayable",
      "type": "function"
    },
    {
      "inputs": [],
      "name": "requestCounter",
      "outputs": [
        {
          "internalType": "uint256",
          "name": "",
          "type": "uint256"
        }
      ],
      "stateMutability": "view",
      "type": "function"
    },
    {
      "inputs": [],
      "name": "storeManager",
      "outputs": [
        {
          "internalType": "address",
          "name": "",
          "type": "address"
        }
      ],
      "stateMutability": "view",
      "type": "function"
    },
    {
      "inputs": [
        {
          "internalType": "address",
          "name": "",
          "type": "address"
        },
        {
          "internalType": "uint256",
          "name": "",
          "type": "uint256"
        }
      ],
      "name": "storeManagerProcurementRequests",
      "outputs": [
        {
          "internalType": "uint256",
          "name": "",
          "type": "uint256"
        }
      ],
      "stateMutability": "view",
      "type": "function"
    },
    {
      "inputs": [
        {
          "internalType": "address",
          "name": "_newAdmin",
          "type": "address"
        }
      ],
      "name": "updateHospitalAdmin",
      "outputs": [],
      "stateMutability": "nonpayable",
      "type": "function"
    },
    {
      "inputs": [
        {
          "internalType": "address",
          "name": "_newManager",
          "type": "address"
        }
      ],
      "name": "updateStoreManager",
      "outputs": [],
      "stateMutability": "nonpayable",
      "type": "function"
    },
    {
      "inputs": [
        {
          "internalType": "address",
          "name": "",
          "type": "address"
        },
        {
          "internalType": "uint256",
          "name": "",
          "type": "uint256"
        }
      ],
      "name": "wardRequests",
      "outputs": [
        {
          "internalType": "uint256",
          "name": "",
          "type": "uint256"
        }
      ],
      "stateMutability": "view",
      "type": "function"
    }
  ],
  "bytecode": "0x60806040523480156200001157600080fd5b50604051620031d1380380620031d18339810160408190526200003491620001a7565b6001600160a01b038316620000905760405162461bcd60e51b815260206004820152601360248201527f496e76616c6964204e465420616464726573730000000000000000000000000060448201526064015b60405180910390fd5b6001600160a01b038216620000e85760405162461bcd60e51b815260206004820152601e60248201527f496e76616c696420686f73706974616c2061646d696e20616464726573730000604482015260640162000087565b6001600160a01b038116620001405760405162461bcd60e51b815260206004820152601d60248201527f496e76616c69642073746f7265206d616e616765722061646472657373000000604482015260640162000087565b600080546001600160a01b03199081166001600160a01b039586161782556001805482169486169490941790935560028054909316919093161790556004819055600755620001f1565b80516001600160a01b0381168114620001a257600080fd5b919050565b600080600060608486031215620001bd57600080fd5b620001c8846200018a565b9250620001d8602085016200018a565b9150620001e8604085016200018a565b90509250925092565b612fd080620002016000396000f3fe608060405234801561001057600080fd5b50600436106101735760003560e01c80637ad3fbf4116100de578063bbfb449911610097578063e810801011610071578063e810801014610368578063eb9db01f1461037b578063f9db39821461038e578063fed30ac7146103a157600080fd5b8063bbfb44991461032f578063c7b2a8d614610342578063e4ebd4721461035557600080fd5b80637ad3fbf4146102ab5780637f6980c0146102d857806380a1f712146102eb5780638b89a31f146102f3578063973a814e14610306578063b71689e41461030f57600080fd5b8063435324a411610130578063435324a4146102145780634e2480f1146102275780635bf8633a1461023a5780636041752f1461026557806364fb813b14610278578063702955be1461028b57600080fd5b8063041dbd60146101785780630bf6710614610196578063154c2c1c146101ab5780631992b6dc146101cc5780631ba9ecb3146101df578063241670a2146101e8575b600080fd5b6101806103b4565b60405161018d919061247b565b60405180910390f35b6101a96101a43660046124db565b6104b5565b005b6101be6101b93660046125a0565b610552565b60405190815260200161018d565b6101be6101da36600461263c565b6108b9565b6101be60075481565b6101fb6101f6366004612666565b6108ea565b60405161018d9d9c9b9a999897969594939291906126c5565b6101a9610222366004612770565b610aff565b6101be61023536600461263c565b610c54565b60005461024d906001600160a01b031681565b6040516001600160a01b03909116815260200161018d565b6101a96102733660046124db565b610c70565b6101a9610286366004612770565b610d04565b61029e610299366004612666565b610e54565b60405161018d91906127b7565b6102be6102b9366004612666565b611133565b60405161018d9e9d9c9b9a999897969594939291906128c1565b6101be6102e6366004612999565b6114df565b6101806117d3565b6101a9610301366004612666565b6118cb565b6101be60045481565b61032261031d366004612666565b611bad565b60405161018d9190612a73565b61018061033d3660046124db565b611fa3565b6101a9610350366004612666565b61200f565b6101a9610363366004612666565b6121b7565b6101806103763660046124db565b6122e1565b6101a9610389366004612770565b61234b565b60015461024d906001600160a01b031681565b60025461024d906001600160a01b031681565b6060600060015b60075481116103fe576000818152600660205260409020600a015460ff16156103ec57816103e881612b95565b9250505b806103f681612b95565b9150506103bb565b5060008167ffffffffffffffff81111561041a5761041a6124fd565b604051908082528060200260200182016040528015610443578160200160208202803683370190505b509050600060015b60075481116104ac576000818152600660205260409020600a015460ff161561049a578083838151811061048157610481612bbc565b60209081029190910101528161049681612b95565b9250505b806104a481612b95565b91505061044b565b50909392505050565b6001546001600160a01b031633146104e85760405162461bcd60e51b81526004016104df90612bd2565b60405180910390fd5b6001600160a01b0381166105305760405162461bcd60e51b815260206004820152600f60248201526e496e76616c6964206164647265737360881b60448201526064016104df565b600280546001600160a01b0319166001600160a01b0392909216919091179055565b60008083116105b85760405162461bcd60e51b815260206004820152602c60248201527f526571756573746564207175616e74697479206d75737420626520677265617460448201526b6572207468616e207a65726f60a01b60648201526084016104df565b60008551116106015760405162461bcd60e51b815260206004820152601560248201527415d85c99081b985b59481a5cc81c995c5d5a5c9959605a1b60448201526064016104df565b6000546040516309a847ad60e41b815260048101889052602481018590526001600160a01b0390911690639a847ad090604401602060405180830381865afa158015610651573d6000803e3d6000fd5b505050506040513d601f19601f820116820180604052508101906106759190612c13565b6106c15760405162461bcd60e51b815260206004820152601e60248201527f496e73756666696369656e74207175616e7469747920696e206173736574000060448201526064016104df565b600480549060006106d183612b95565b9091555050600454604080516101a0810182528881523360208083019182528284018a8152606084018a905260808401899052600060a085018190524260c086015260e085018190526001610100860181905261012086018290526101408601829052610160860182905261018086018a905287825260039093529490942083518155915190820180546001600160a01b0319166001600160a01b039092169190911790559151909190600282019061078a9082612cbe565b506060820151600382019061079f9082612cbe565b506080820151600482015560a0820151600582015560c0820151600682015560e0820151600782015561010080830151600883018054610120860151610140870151610160880151151563010000000263ff0000001991151562010000029190911663ffff00001992151590960261ff00199515159590951661ffff199093169290921793909317929092169290921717905561018082015160098201906108479082612cbe565b50503360008181526005602090815260408083208054600181018255908452919092200184905551909150889083907f94ec090c85c5499629e7791d1b16eabde51ea67ad010c0248c0bc786e768552a906108a7908b908a904290612d7e565b60405180910390a49695505050505050565b600860205281600052604060002081815481106108d557600080fd5b90600052602060002001600091509150505481565b60036020526000908152604090208054600182015460028301805492936001600160a01b039092169261091c90612c35565b80601f016020809104026020016040519081016040528092919081815260200182805461094890612c35565b80156109955780601f1061096a57610100808354040283529160200191610995565b820191906000526020600020905b81548152906001019060200180831161097857829003601f168201915b5050505050908060030180546109aa90612c35565b80601f01602080910402602001604051908101604052809291908181526020018280546109d690612c35565b8015610a235780601f106109f857610100808354040283529160200191610a23565b820191906000526020600020905b815481529060010190602001808311610a0657829003601f168201915b5050505060048301546005840154600685015460078601546008870154600988018054979895979496509294919360ff8083169461010084048216946201000085048316946301000000900490921692610a7c90612c35565b80601f0160208091040260200160405190810160405280929190818152602001828054610aa890612c35565b8015610af55780601f10610aca57610100808354040283529160200191610af5565b820191906000526020600020905b815481529060010190602001808311610ad857829003601f168201915b505050505090508d565b6001546001600160a01b03163314610b295760405162461bcd60e51b81526004016104df90612bd2565b6000828152600660205260409020600a81015460ff16610b845760405162461bcd60e51b815260206004820152601660248201527552657175657374206973206e6f742070656e64696e6760501b60448201526064016104df565b600a810154610100900460ff16158015610ba95750600a81015462010000900460ff16155b610bf15760405162461bcd60e51b815260206004820152601960248201527814995c5d595cdd08185b1c9958591e481c1c9bd8d95cdcd959603a1b60448201526064016104df565b600a8101805461ffff1916610100179055426009820155600b8101610c168382612cbe565b50604051428152339084907feff72eb448345f50c18000b8fe0a779943a728f190c8a8a82563b4b73f247669906020015b60405180910390a3505050565b600560205281600052604060002081815481106108d557600080fd5b6001546001600160a01b03163314610c9a5760405162461bcd60e51b81526004016104df90612bd2565b6001600160a01b038116610ce25760405162461bcd60e51b815260206004820152600f60248201526e496e76616c6964206164647265737360881b60448201526064016104df565b600180546001600160a01b0319166001600160a01b0392909216919091179055565b6001546001600160a01b03163314610d2e5760405162461bcd60e51b81526004016104df90612bd2565b6000828152600660205260409020600a81015460ff16610d895760405162461bcd60e51b815260206004820152601660248201527552657175657374206973206e6f742070656e64696e6760501b60448201526064016104df565b600a810154610100900460ff16158015610dae5750600a81015462010000900460ff16155b610df65760405162461bcd60e51b815260206004820152601960248201527814995c5d595cdd08185b1c9958591e481c1c9bd8d95cdcd959603a1b60448201526064016104df565b600a8101805462ff00ff191662010000179055600b8101610e178382612cbe565b50336001600160a01b0316837f4a77e17c0a65ce6453581e208b49db595323fcc83ef3b1a876c173110cb0baf38442604051610c47929190612da3565b610ed0604051806101a001604052806000815260200160006001600160a01b03168152602001606081526020016060815260200160008152602001600081526020016000815260200160008152602001600015158152602001600015158152602001600015158152602001600015158152602001606081525090565b60008281526003602090815260409182902082516101a0810184528154815260018201546001600160a01b0316928101929092526002810180549293919291840191610f1b90612c35565b80601f0160208091040260200160405190810160405280929190818152602001828054610f4790612c35565b8015610f945780601f10610f6957610100808354040283529160200191610f94565b820191906000526020600020905b815481529060010190602001808311610f7757829003601f168201915b50505050508152602001600382018054610fad90612c35565b80601f0160208091040260200160405190810160405280929190818152602001828054610fd990612c35565b80156110265780601f10610ffb57610100808354040283529160200191611026565b820191906000526020600020905b81548152906001019060200180831161100957829003601f168201915b505050918352505060048201546020820152600582015460408201526006820154606082015260078201546080820152600882015460ff808216151560a08401526101008083048216151560c08501526201000083048216151560e0850152630100000090920416151590820152600982018054610120909201916110aa90612c35565b80601f01602080910402602001604051908101604052809291908181526020018280546110d690612c35565b80156111235780601f106110f857610100808354040283529160200191611123565b820191906000526020600020905b81548152906001019060200180831161110657829003601f168201915b5050505050815250509050919050565b60066020526000908152604090208054600182015460028301805492936001600160a01b039092169261116590612c35565b80601f016020809104026020016040519081016040528092919081815260200182805461119190612c35565b80156111de5780601f106111b3576101008083540402835291602001916111de565b820191906000526020600020905b8154815290600101906020018083116111c157829003601f168201915b5050505050908060030180546111f390612c35565b80601f016020809104026020016040519081016040528092919081815260200182805461121f90612c35565b801561126c5780601f106112415761010080835404028352916020019161126c565b820191906000526020600020905b81548152906001019060200180831161124f57829003601f168201915b50505050509080600401549080600501805461128790612c35565b80601f01602080910402602001604051908101604052809291908181526020018280546112b390612c35565b80156113005780601f106112d557610100808354040283529160200191611300565b820191906000526020600020905b8154815290600101906020018083116112e357829003601f168201915b50505050509080600601805461131590612c35565b80601f016020809104026020016040519081016040528092919081815260200182805461134190612c35565b801561138e5780601f106113635761010080835404028352916020019161138e565b820191906000526020600020905b81548152906001019060200180831161137157829003601f168201915b5050505050908060070180546113a390612c35565b80601f01602080910402602001604051908101604052809291908181526020018280546113cf90612c35565b801561141c5780601f106113f15761010080835404028352916020019161141c565b820191906000526020600020905b8154815290600101906020018083116113ff57829003601f168201915b50505060088401546009850154600a860154600b870180549697939692955060ff8083169550610100830481169462010000909304169261145c90612c35565b80601f016020809104026020016040519081016040528092919081815260200182805461148890612c35565b80156114d55780601f106114aa576101008083540402835291602001916114d5565b820191906000526020600020905b8154815290600101906020018083116114b857829003601f168201915b505050505090508e565b6002546000906001600160a01b0316331461150c5760405162461bcd60e51b81526004016104df90612dc5565b600085116115675760405162461bcd60e51b815260206004820152602260248201527f5175616e74697479206d7573742062652067726561746572207468616e207a65604482015261726f60f01b60648201526084016104df565b60008751116115b05760405162461bcd60e51b8152602060048201526015602482015274125d195b481b985b59481a5cc81c995c5d5a5c9959605a1b60448201526064016104df565b600780549060006115c083612b95565b9091555050600754604080516101c0810182528281523360208083019182528284018c8152606084018c9052608084018b905260a084018a905260c0840189905260e0840188905242610100850152600061012085018190526001610140860181905261016086018290526101808601829052865180850188528281526101a087015287825260069093529490942083518155915190820180546001600160a01b0319166001600160a01b03909216919091179055915190919060028201906116899082612cbe565b506060820151600382019061169e9082612cbe565b506080820151600482015560a082015160058201906116bd9082612cbe565b5060c082015160068201906116d29082612cbe565b5060e082015160078201906116e79082612cbe565b506101008281015160088301556101208301516009830155610140830151600a8301805461016086015161018087015161ffff1990921693151561ff001916939093179215159093029190911762ff0000191662010000921515929092029190911790556101a0820151600b8201906117609082612cbe565b5050336000818152600860209081526040808320805460018101825590845291909220018490555190915082907faa828e296c1bf0e01bf24f1412324c2934f4d5259db14fac334574153408fa50906117c0908c908b908a904290612dfa565b60405180910390a3979650505050505050565b6060600060015b600454811161181d5760008181526003602052604090206008015460ff161561180b578161180781612b95565b9250505b8061181581612b95565b9150506117da565b5060008167ffffffffffffffff811115611839576118396124fd565b604051908082528060200260200182016040528015611862578160200160208202803683370190505b509050600060015b60045481116104ac5760008181526003602052604090206008015460ff16156118b957808383815181106118a0576118a0612bbc565b6020908102919091010152816118b581612b95565b9250505b806118c381612b95565b91505061186a565b6002546001600160a01b031633146118f55760405162461bcd60e51b81526004016104df90612dc5565b6000818152600360205260409020600881015460ff166119275760405162461bcd60e51b81526004016104df90612e37565b60088101546301000000900460ff16156119535760405162461bcd60e51b81526004016104df90612e64565b60005481546004808401546040516309a847ad60e41b81526001600160a01b0390941693639a847ad0936119939390929101918252602082015260400190565b602060405180830381865afa1580156119b0573d6000803e3d6000fd5b505050506040513d601f19601f820116820180604052508101906119d49190612c13565b611a205760405162461bcd60e51b815260206004820152601f60248201527f496e73756666696369656e74207175616e7469747920617661696c61626c650060448201526064016104df565b600054815460048084015460405163ef6bf69760e01b81526001600160a01b039094169363ef6bf69793611a609390929101918252602082015260400190565b600060405180830381600087803b158015611a7a57600080fd5b505af1158015611a8e573d6000803e3d6000fd5b50505050600080826003018054611aa490612c35565b905011611ab2576001611ab5565b60025b6000548354604051638eb43be960e01b81529293506001600160a01b0390911691638eb43be991611af491859060028801906003890190600401612f0f565b600060405180830381600087803b158015611b0e57600080fd5b505af1158015611b22573d6000803e3d6000fd5b50505060088301805460048501546005860181905563ff0000ff199091166301000000179091554260078501819055600185015485546040516001600160a01b0390921694509287927fb58d4f3a336ebc35b66b84788713f1f816e620d01817a6047c40987d5291401c92611ba09260028a019260038b0192612f4e565b60405180910390a4505050565b611c2e604051806101c001604052806000815260200160006001600160a01b031681526020016060815260200160608152602001600081526020016060815260200160608152602001606081526020016000815260200160008152602001600015158152602001600015158152602001600015158152602001606081525090565b60008281526006602090815260409182902082516101c0810184528154815260018201546001600160a01b0316928101929092526002810180549293919291840191611c7990612c35565b80601f0160208091040260200160405190810160405280929190818152602001828054611ca590612c35565b8015611cf25780601f10611cc757610100808354040283529160200191611cf2565b820191906000526020600020905b815481529060010190602001808311611cd557829003601f168201915b50505050508152602001600382018054611d0b90612c35565b80601f0160208091040260200160405190810160405280929190818152602001828054611d3790612c35565b8015611d845780601f10611d5957610100808354040283529160200191611d84565b820191906000526020600020905b815481529060010190602001808311611d6757829003601f168201915b5050505050815260200160048201548152602001600582018054611da790612c35565b80601f0160208091040260200160405190810160405280929190818152602001828054611dd390612c35565b8015611e205780601f10611df557610100808354040283529160200191611e20565b820191906000526020600020905b815481529060010190602001808311611e0357829003601f168201915b50505050508152602001600682018054611e3990612c35565b80601f0160208091040260200160405190810160405280929190818152602001828054611e6590612c35565b8015611eb25780601f10611e8757610100808354040283529160200191611eb2565b820191906000526020600020905b815481529060010190602001808311611e9557829003601f168201915b50505050508152602001600782018054611ecb90612c35565b80601f0160208091040260200160405190810160405280929190818152602001828054611ef790612c35565b8015611f445780601f10611f1957610100808354040283529160200191611f44565b820191906000526020600020905b815481529060010190602001808311611f2757829003601f168201915b50505091835250506008820154602082015260098201546040820152600a82015460ff8082161515606084015261010082048116151560808401526201000090910416151560a0820152600b8201805460c0909201916110aa90612c35565b6001600160a01b03811660009081526005602090815260409182902080548351818402810184019094528084526060939283018282801561200357602002820191906000526020600020905b815481526020019060010190808311611fef575b50505050509050919050565b6002546001600160a01b031633146120395760405162461bcd60e51b81526004016104df90612dc5565b6000818152600360205260409020600881015460ff1661206b5760405162461bcd60e51b81526004016104df90612e37565b60088101546301000000900460ff16156120975760405162461bcd60e51b81526004016104df90612e64565b60005481546004808401546040516309a847ad60e41b81526001600160a01b0390941693639a847ad0936120d79390929101918252602082015260400190565b602060405180830381865afa1580156120f4573d6000803e3d6000fd5b505050506040513d601f19601f820116820180604052508101906121189190612c13565b6121645760405162461bcd60e51b815260206004820152601f60248201527f496e73756666696369656e74207175616e7469747920617661696c61626c650060448201526064016104df565b60088101805461ff001916610100179055604051339083907fb73b25a06c11b0fbec60ecf73a1cceec6aa922b0a85fb683bb8a78b170fd83cd906121ab9042815260200190565b60405180910390a35050565b6001546001600160a01b031633146121e15760405162461bcd60e51b81526004016104df90612bd2565b6000818152600360205260409020600881015460ff166122135760405162461bcd60e51b81526004016104df90612e37565b60088101546301000000900460ff161561223f5760405162461bcd60e51b81526004016104df90612e64565b6008810154610100900460ff166122985760405162461bcd60e51b815260206004820152601d60248201527f53746f726520617070726f76616c20726571756972656420666972737400000060448201526064016104df565b60088101805462ff0000191662010000179055604051339083907f24f468a2eaafe5cf853bc1dc9b780dd65674b1e57537ed16b1ceb3b0a7bd713b906121ab9042815260200190565b6001600160a01b0381166000908152600860209081526040918290208054835181840281018401909452808452606093928301828280156120035760200282019190600052602060002090815481526020019060010190808311611fef5750505050509050919050565b60008281526003602052604090206001546001600160a01b031633148061237c57506002546001600160a01b031633145b80612393575060018101546001600160a01b031633145b6123df5760405162461bcd60e51b815260206004820152601860248201527f4e6f7420617574686f72697a656420746f2063616e63656c000000000000000060448201526064016104df565b60088101546301000000900460ff161561243b5760405162461bcd60e51b815260206004820152601a60248201527f43616e6e6f742063616e63656c2069737375656420617373657400000000000060448201526064016104df565b60088101805460ff19169055604051339084907f29c569c563efc41e7cb508fe59ddcd0676dc7b7047ad7a776126941b3e664ab190610c47908690612f87565b6020808252825182820181905260009190848201906040850190845b818110156124b357835183529284019291840191600101612497565b50909695505050505050565b80356001600160a01b03811681146124d657600080fd5b919050565b6000602082840312156124ed57600080fd5b6124f6826124bf565b9392505050565b634e487b7160e01b600052604160045260246000fd5b600082601f83011261252457600080fd5b813567ffffffffffffffff8082111561253f5761253f6124fd565b604051601f8301601f19908116603f01168101908282118183101715612567576125676124fd565b8160405283815286602085880101111561258057600080fd5b836020870160208301376000602085830101528094505050505092915050565b600080600080600060a086880312156125b857600080fd5b85359450602086013567ffffffffffffffff808211156125d757600080fd5b6125e389838a01612513565b955060408801359150808211156125f957600080fd5b61260589838a01612513565b945060608801359350608088013591508082111561262257600080fd5b5061262f88828901612513565b9150509295509295909350565b6000806040838503121561264f57600080fd5b612658836124bf565b946020939093013593505050565b60006020828403121561267857600080fd5b5035919050565b6000815180845260005b818110156126a557602081850181015186830182015201612689565b506000602082860101526020601f19601f83011685010191505092915050565b8d81526001600160a01b038d1660208201526101a0604082018190526000906126f08382018f61267f565b90508281036060840152612704818e61267f565b90508b60808401528a60a08401528960c08401528860e084015261272d61010084018915159052565b86151561012084015285151561014084015284151561016084015282810361018084015261275b818561267f565b9150509e9d5050505050505050505050505050565b6000806040838503121561278357600080fd5b82359150602083013567ffffffffffffffff8111156127a157600080fd5b6127ad85828601612513565b9150509250929050565b6020815281516020820152600060208301516127de60408401826001600160a01b03169052565b5060408301516101a08060608501526127fb6101c085018361267f565b91506060850151601f1980868503016080870152612819848361267f565b9350608087015160a087015260a087015160c087015260c087015160e087015260e0870151915061010082818801528088015192505061012061285f8188018415159052565b87015191506101406128748782018415159052565b87015191506101606128898782018415159052565b870151915061018061289e8782018415159052565b8701518685039091018387015290506128b7838261267f565b9695505050505050565b8e81526001600160a01b038e1660208201526101c0604082015260006128eb6101c083018f61267f565b82810360608401526128fd818f61267f565b90508c608084015282810360a0840152612917818d61267f565b905082810360c084015261292b818c61267f565b905082810360e084015261293f818b61267f565b9050886101008401528761012084015261295e61014084018815159052565b8515156101608401528415156101808401528281036101a0840152612983818561267f565b9150509f9e505050505050505050505050505050565b60008060008060008060c087890312156129b257600080fd5b863567ffffffffffffffff808211156129ca57600080fd5b6129d68a838b01612513565b975060208901359150808211156129ec57600080fd5b6129f88a838b01612513565b9650604089013595506060890135915080821115612a1557600080fd5b612a218a838b01612513565b94506080890135915080821115612a3757600080fd5b612a438a838b01612513565b935060a0890135915080821115612a5957600080fd5b50612a6689828a01612513565b9150509295509295509295565b602081528151602082015260006020830151612a9a60408401826001600160a01b03169052565b5060408301516101c0806060850152612ab76101e085018361267f565b91506060850151601f1980868503016080870152612ad5848361267f565b9350608087015160a087015260a08701519150808685030160c0870152612afc848361267f565b935060c08701519150808685030160e0870152612b19848361267f565b935060e08701519150610100818786030181880152612b38858461267f565b9088015161012088810191909152880151610140808901919091528801519094509150610160612b6b8188018415159052565b8701519150610180612b808782018415159052565b87015191506101a061289e8782018415159052565b600060018201612bb557634e487b7160e01b600052601160045260246000fd5b5060010190565b634e487b7160e01b600052603260045260246000fd5b60208082526021908201527f4f6e6c7920686f73706974616c2061646d696e2063616e2063616c6c207468696040820152607360f81b606082015260800190565b600060208284031215612c2557600080fd5b815180151581146124f657600080fd5b600181811c90821680612c4957607f821691505b602082108103612c6957634e487b7160e01b600052602260045260246000fd5b50919050565b601f821115612cb957600081815260208120601f850160051c81016020861015612c965750805b601f850160051c820191505b81811015612cb557828155600101612ca2565b5050505b505050565b815167ffffffffffffffff811115612cd857612cd86124fd565b612cec81612ce68454612c35565b84612c6f565b602080601f831160018114612d215760008415612d095750858301515b600019600386901b1c1916600185901b178555612cb5565b600085815260208120601f198616915b82811015612d5057888601518255948401946001909101908401612d31565b5085821015612d6e5787850151600019600388901b60f8161c191681555b5050505050600190811b01905550565b606081526000612d91606083018661267f565b60208301949094525060400152919050565b604081526000612db6604083018561267f565b90508260208301529392505050565b6020808252818101527f4f6e6c792073746f7265206d616e616765722063616e2063616c6c2074686973604082015260600190565b608081526000612e0d608083018761267f565b8560208401528281036040840152612e25818661267f565b91505082606083015295945050505050565b60208082526013908201527252657175657374206e6f742070656e64696e6760681b604082015260600190565b602080825260149082015273105cdcd95d08185b1c9958591e481a5cdcdd595960621b604082015260600190565b60008154612e9f81612c35565b808552602060018381168015612ebc5760018114612ed657612f04565b60ff1985168884015283151560051b880183019550612f04565b866000528260002060005b85811015612efc5781548a8201860152908301908401612ee1565b890184019650505b505050505092915050565b84815260ff84166020820152608060408201526000612f316080830185612e92565b8281036060840152612f438185612e92565b979650505050505050565b608081526000612f616080830187612e92565b8281036020840152612f738187612e92565b604084019590955250506060015292915050565b6020815260006124f6602083018461267f56fea2646970667358221220261397450fedaacd6a21e25bb98713f3b3c8dd04beed63e89b37028fb5c6e89a64736f6c63430008110033",
  "linkReferences": {},
  "deployedLinkReferences": {}
}