{
  "_format": "hh-sol-artifact-1",
  "contractName": "MedicalAsset",
  "sourceName": "contracts/MedicalAsset.sol",
  "abi": [
    {
      "inputs": [
        {
          "internalType": "address",
          "name": "_hospitalAdmin",
          "type": "address"
        }
      ],
      "stateMutability": "nonpayable",
      "type": "constructor"
    },
    {
      "anonymous": false,
      "inputs": [
        {
          "indexed": true,
          "internalType": "address",
          "name": "owner",
          "type": "address"
        },
        {
          "indexed": true,
          "internalType": "address",
          "name": "approved",
          "type": "address"
        },
        {
          "indexed": true,
          "internalType": "uint256",
          "name": "tokenId",
          "type": "uint256"
        }
      ],
      "name": "Approval",
      "type": "event"
    },
    {
      "anonymous": false,
      "inputs": [
        {
          "indexed": true,
          "internalType": "address",
          "name": "owner",
          "type": "address"
        },
        {
          "indexed": true,
          "internalType": "address",
          "name": "operator",
          "type": "address"
        },
        {
          "indexed": false,
          "internalType": "bool",
          "name": "approved",
          "type": "bool"
        }
      ],
      "name": "ApprovalForAll",
      "type": "event"
    },
    {
      "anonymous": false,
      "inputs": [
        {
          "indexed": true,
          "internalType": "uint256",
          "name": "tokenId",
          "type": "uint256"
        },
        {
          "indexed": true,
          "internalType": "address",
          "name": "hospitalAdmin",
          "type": "address"
        },
        {
          "indexed": false,
          "internalType": "enum MedicalAsset.ItemType",
          "name": "itemType",
          "type": "uint8"
        },
        {
          "indexed": false,
          "internalType": "uint256",
          "name": "quantity",
          "type": "uint256"
        },
        {
          "indexed": false,
          "internalType": "string",
          "name": "tokenURI",
          "type": "string"
        }
      ],
      "name": "AssetMinted",
      "type": "event"
    },
    {
      "anonymous": false,
      "inputs": [
        {
          "indexed": true,
          "internalType": "uint256",
          "name": "tokenId",
          "type": "uint256"
        },
        {
          "indexed": false,
          "internalType": "uint256",
          "name": "reducedAmount",
          "type": "uint256"
        },
        {
          "indexed": false,
          "internalType": "uint256",
          "name": "remainingAmount",
          "type": "uint256"
        }
      ],
      "name": "QuantityReduced",
      "type": "event"
    },
    {
      "anonymous": false,
      "inputs": [
        {
          "indexed": true,
          "internalType": "uint256",
          "name": "tokenId",
          "type": "uint256"
        },
        {
          "indexed": false,
          "internalType": "enum MedicalAsset.ItemStatus",
          "name": "newStatus",
          "type": "uint8"
        },
        {
          "indexed": false,
          "internalType": "string",
          "name": "wardName",
          "type": "string"
        },
        {
          "indexed": false,
          "internalType": "string",
          "name": "patientId",
          "type": "string"
        },
        {
          "indexed": true,
          "internalType": "address",
          "name": "issuedBy",
          "type": "address"
        },
        {
          "indexed": false,
          "internalType": "uint256",
          "name": "timestamp",
          "type": "uint256"
        }
      ],
      "name": "StatusUpdated",
      "type": "event"
    },
    {
      "anonymous": false,
      "inputs": [
        {
          "indexed": true,
          "internalType": "address",
          "name": "from",
          "type": "address"
        },
        {
          "indexed": true,
          "internalType": "address",
          "name": "to",
          "type": "address"
        },
        {
          "indexed": true,
          "internalType": "uint256",
          "name": "tokenId",
          "type": "uint256"
        }
      ],
      "name": "Transfer",
      "type": "event"
    },
    {
      "inputs": [
        {
          "internalType": "address",
          "name": "to",
          "type": "address"
        },
        {
          "internalType": "uint256",
          "name": "tokenId",
          "type": "uint256"
        }
      ],
      "name": "approve",
      "outputs": [],
      "stateMutability": "nonpayable",
      "type": "function"
    },
    {
      "inputs": [
        {
          "internalType": "uint256",
          "name": "",
          "type": "uint256"
        }
      ],
      "name": "assetInfo",
      "outputs": [
        {
          "internalType": "uint256",
          "name": "tokenId",
          "type": "uint256"
        },
        {
          "internalType": "enum MedicalAsset.ItemType",
          "name": "itemType",
          "type": "uint8"
        },
        {
          "internalType": "uint256",
          "name": "totalQuantity",
          "type": "uint256"
        },
        {
          "internalType": "uint256",
          "name": "remainingQuantity",
          "type": "uint256"
        },
        {
          "internalType": "enum MedicalAsset.ItemStatus",
          "name": "status",
          "type": "uint8"
        },
        {
          "internalType": "string",
          "name": "wardName",
          "type": "string"
        },
        {
          "internalType": "string",
          "name": "patientId",
          "type": "string"
        },
        {
          "internalType": "address",
          "name": "issuedBy",
          "type": "address"
        },
        {
          "internalType": "uint256",
          "name": "issuedTimestamp",
          "type": "uint256"
        }
      ],
      "stateMutability": "view",
      "type": "function"
    },
    {
      "inputs": [
        {
          "internalType": "address",
          "name": "owner",
          "type": "address"
        }
      ],
      "name": "balanceOf",
      "outputs": [
        {
          "internalType": "uint256",
          "name": "",
          "type": "uint256"
        }
      ],
      "stateMutability": "view",
      "type": "function"
    },
    {
      "inputs": [
        {
          "internalType": "uint256",
          "name": "tokenId",
          "type": "uint256"
        }
      ],
      "name": "getApproved",
      "outputs": [
        {
          "internalType": "address",
          "name": "",
          "type": "address"
        }
      ],
      "stateMutability": "view",
      "type": "function"
    },
    {
      "inputs": [
        {
          "internalType": "uint256",
          "name": "tokenId",
          "type": "uint256"
        }
      ],
      "name": "getAssetInfo",
      "outputs": [
        {
          "components": [
            {
              "internalType": "uint256",
              "name": "tokenId",
              "type": "uint256"
            },
            {
              "internalType": "enum MedicalAsset.ItemType",
              "name": "itemType",
              "type": "uint8"
            },
            {
              "internalType": "uint256",
              "name": "totalQuantity",
              "type": "uint256"
            },
            {
              "internalType": "uint256",
              "name": "remainingQuantity",
              "type": "uint256"
            },
            {
              "internalType": "enum MedicalAsset.ItemStatus",
              "name": "status",
              "type": "uint8"
            },
            {
              "internalType": "string",
              "name": "wardName",
              "type": "string"
            },
            {
              "internalType": "string",
              "name": "patientId",
              "type": "string"
            },
            {
              "internalType": "address",
              "name": "issuedBy",
              "type": "address"
            },
            {
              "internalType": "uint256",
              "name": "issuedTimestamp",
              "type": "uint256"
            }
          ],
          "internalType": "struct MedicalAsset.AssetInfo",
          "name": "",
          "type": "tuple"
        }
      ],
      "stateMutability": "view",
      "type": "function"
    },
    {
      "inputs": [
        {
          "internalType": "uint256",
          "name": "tokenId",
          "type": "uint256"
        }
      ],
      "name": "getBatchDetails",
      "outputs": [
        {
          "internalType": "uint256",
          "name": "total",
          "type": "uint256"
        },
        {
          "internalType": "uint256",
          "name": "remaining",
          "type": "uint256"
        },
        {
          "internalType": "address",
          "name": "owner",
          "type": "address"
        }
      ],
      "stateMutability": "view",
      "type": "function"
    },
    {
      "inputs": [
        {
          "internalType": "uint256",
          "name": "tokenId",
          "type": "uint256"
        },
        {
          "internalType": "uint256",
          "name": "requestedAmount",
          "type": "uint256"
        }
      ],
      "name": "hasAvailableQuantity",
      "outputs": [
        {
          "internalType": "bool",
          "name": "",
          "type": "bool"
        }
      ],
      "stateMutability": "view",
      "type": "function"
    },
    {
      "inputs": [],
      "name": "hospitalAdmin",
      "outputs": [
        {
          "internalType": "address",
          "name": "",
          "type": "address"
        }
      ],
      "stateMutability": "view",
      "type": "function"
    },
    {
      "inputs": [
        {
          "internalType": "address",
          "name": "owner",
          "type": "address"
        },
        {
          "internalType": "address",
          "name": "operator",
          "type": "address"
        }
      ],
      "name": "isApprovedForAll",
      "outputs": [
        {
          "internalType": "bool",
          "name": "",
          "type": "bool"
        }
      ],
      "stateMutability": "view",
      "type": "function"
    },
    {
      "inputs": [
        {
          "internalType": "string",
          "name": "tokenURI",
          "type": "string"
        },
        {
          "internalType": "uint256",
          "name": "quantity",
          "type": "uint256"
        },
        {
          "internalType": "enum MedicalAsset.ItemType",
          "name": "itemType",
          "type": "uint8"
        }
      ],
      "name": "mintAsset",
      "outputs": [
        {
          "internalType": "uint256",
          "name": "",
          "type": "uint256"
        }
      ],
      "stateMutability": "nonpayable",
      "type": "function"
    },
    {
      "inputs": [],
      "name": "name",
      "outputs": [
        {
          "internalType": "string",
          "name": "",
          "type": "string"
        }
      ],
      "stateMutability": "view",
      "type": "function"
    },
    {
      "inputs": [
        {
          "internalType": "uint256",
          "name": "tokenId",
          "type": "uint256"
        }
      ],
      "name": "ownerOf",
      "outputs": [
        {
          "internalType": "address",
          "name": "",
          "type": "address"
        }
      ],
      "stateMutability": "view",
      "type": "function"
    },
    {
      "inputs": [
        {
          "internalType": "uint256",
          "name": "tokenId",
          "type": "uint256"
        },
        {
          "internalType": "uint256",
          "name": "amount",
          "type": "uint256"
        }
      ],
      "name": "reduceQuantity",
      "outputs": [],
      "stateMutability": "nonpayable",
      "type": "function"
    },
    {
      "inputs": [
        {
          "internalType": "uint256",
          "name": "",
          "type": "uint256"
        }
      ],
      "name": "remainingQuantity",
      "outputs": [
        {
          "internalType": "uint256",
          "name": "",
          "type": "uint256"
        }
      ],
      "stateMutability": "view",
      "type": "function"
    },
    {
      "inputs": [
        {
          "internalType": "address",
          "name": "from",
          "type": "address"
        },
        {
          "internalType": "address",
          "name": "to",
          "type": "address"
        },
        {
          "internalType": "uint256",
          "name": "tokenId",
          "type": "uint256"
        }
      ],
      "name": "safeTransferFrom",
      "outputs": [],
      "stateMutability": "nonpayable",
      "type": "function"
    },
    {
      "inputs": [
        {
          "internalType": "address",
          "name": "from",
          "type": "address"
        },
        {
          "internalType": "address",
          "name": "to",
          "type": "address"
        },
        {
          "internalType": "uint256",
          "name": "tokenId",
          "type": "uint256"
        },
        {
          "internalType": "bytes",
          "name": "data",
          "type": "bytes"
        }
      ],
      "name": "safeTransferFrom",
      "outputs": [],
      "stateMutability": "nonpayable",
      "type": "function"
    },
    {
      "inputs": [
        {
          "internalType": "address",
          "name": "operator",
          "type": "address"
        },
        {
          "internalType": "bool",
          "name": "approved",
          "type": "bool"
        }
      ],
      "name": "setApprovalForAll",
      "outputs": [],
      "stateMutability": "nonpayable",
      "type": "function"
    },
    {
      "inputs": [
        {
          "internalType": "bytes4",
          "name": "interfaceId",
          "type": "bytes4"
        }
      ],
      "name": "supportsInterface",
      "outputs": [
        {
          "internalType": "bool",
          "name": "",
          "type": "bool"
        }
      ],
      "stateMutability": "view",
      "type": "function"
    },
    {
      "inputs": [],
      "name": "symbol",
      "outputs": [
        {
          "internalType": "string",
          "name": "",
          "type": "string"
        }
      ],
      "stateMutability": "view",
      "type": "function"
    },
    {
      "inputs": [
        {
          "internalType": "uint256",
          "name": "tokenId",
          "type": "uint256"
        }
      ],
      "name": "tokenURI",
      "outputs": [
        {
          "internalType": "string",
          "name": "",
          "type": "string"
        }
      ],
      "stateMutability": "view",
      "type": "function"
    },
    {
      "inputs": [
        {
          "internalType": "uint256",
          "name": "",
          "type": "uint256"
        }
      ],
      "name": "totalQuantity",
      "outputs": [
        {
          "internalType": "uint256",
          "name": "",
          "type": "uint256"
        }
      ],
      "stateMutability": "view",
      "type": "function"
    },
    {
      "inputs": [],
      "name": "totalSupply",
      "outputs": [
        {
          "internalType": "uint256",
          "name": "",
          "type": "uint256"
        }
      ],
      "stateMutability": "view",
      "type": "function"
    },
    {
      "inputs": [
        {
          "internalType": "address",
          "name": "from",
          "type": "address"
        },
        {
          "internalType": "address",
          "name": "to",
          "type": "address"
        },
        {
          "internalType": "uint256",
          "name": "tokenId",
          "type": "uint256"
        }
      ],
      "name": "transferFrom",
      "outputs": [],
      "stateMutability": "nonpayable",
      "type": "function"
    },
    {
      "inputs": [
        {
          "internalType": "uint256",
          "name": "tokenId",
          "type": "uint256"
        },
        {
          "internalType": "enum MedicalAsset.ItemStatus",
          "name": "newStatus",
          "type": "uint8"
        },
        {
          "internalType": "string",
          "name": "wardName",
          "type": "string"
        },
        {
          "internalType": "string",
          "name": "patientId",
          "type": "string"
        }
      ],
      "name": "updateAssetStatus",
      "outputs": [],
      "stateMutability": "nonpayable",
      "type": "function"
    }
  ],
  "bytecode": "0x60806040523480156200001157600080fd5b506040516200269e3803806200269e83398101604081905262000034916200012a565b6040518060400160405280601681526020017f486f73706974616c204d65646963616c2041737365740000000000000000000081525060405180604001604052806003815260200162484d4160e81b815250816000908162000097919062000201565b506001620000a6828262000201565b5050506001600160a01b038116620001045760405162461bcd60e51b815260206004820152601e60248201527f496e76616c696420686f73706974616c2061646d696e20616464726573730000604482015260640160405180910390fd5b600880546001600160a01b0319166001600160a01b0392909216919091179055620002cd565b6000602082840312156200013d57600080fd5b81516001600160a01b03811681146200015557600080fd5b9392505050565b634e487b7160e01b600052604160045260246000fd5b600181811c908216806200018757607f821691505b602082108103620001a857634e487b7160e01b600052602260045260246000fd5b50919050565b601f821115620001fc57600081815260208120601f850160051c81016020861015620001d75750805b601f850160051c820191505b81811015620001f857828155600101620001e3565b5050505b505050565b81516001600160401b038111156200021d576200021d6200015c565b62000235816200022e845462000172565b84620001ae565b602080601f8311600181146200026d5760008415620002545750858301515b600019600386901b1c1916600185901b178555620001f8565b600085815260208120601f198616915b828110156200029e578886015182559484019460019091019084016200027d565b5085821015620002bd5787850151600019600388901b60f8161c191681555b5050505050600190811b01905550565b6123c180620002dd6000396000f3fe608060405234801561001057600080fd5b50600436106101585760003560e01c80639a847ad0116100c3578063c87b56dd1161007c578063c87b56dd1461033f578063c97e2ee814610352578063e985e9c514610365578063ef6bf697146103a1578063f637d950146103b4578063f9db3982146103d457600080fd5b80639a847ad0146102775780639c27492a1461029a5780639d47dcc0146102ba578063a22cb465146102f1578063a879fcbb14610304578063b88d4fde1461032c57600080fd5b806342842e0e1161011557806342842e0e146102035780636352211e1461021657806370a08231146102295780638eb43be91461023c578063932a8de01461024f57806395d89b411461026f57600080fd5b806301ffc9a71461015d57806306fdde0314610185578063081812fc1461019a578063095ea7b3146101c557806318160ddd146101da57806323b872dd146101f0575b600080fd5b61017061016b366004611ad7565b6103e7565b60405190151581526020015b60405180910390f35b61018d610439565b60405161017c9190611b44565b6101ad6101a8366004611b57565b6104cb565b6040516001600160a01b03909116815260200161017c565b6101d86101d3366004611b8c565b6104f2565b005b6101e261060c565b60405190815260200161017c565b6101d86101fe366004611bb6565b61061c565b6101d8610211366004611bb6565b61064d565b6101ad610224366004611b57565b610668565b6101e2610237366004611bf2565b6106c8565b6101d861024a366004611cb9565b61074e565b6101e261025d366004611b57565b600b6020526000908152604090205481565b61018d6108a9565b610170610285366004611d3d565b6000918252600b602052604090912054101590565b6101e26102a8366004611b57565b600a6020526000908152604090205481565b6102cd6102c8366004611b57565b6108b8565b6040805193845260208401929092526001600160a01b03169082015260600161017c565b6101d86102ff366004611d5f565b610943565b610317610312366004611b57565b610952565b60405161017c99989796959493929190611dd5565b6101d861033a366004611e4c565b610abd565b61018d61034d366004611b57565b610af5565b6101e2610360366004611ebc565b610c05565b610170610373366004611f1b565b6001600160a01b03918216600090815260056020908152604080832093909416825291909152205460ff1690565b6101d86103af366004611d3d565b610eab565b6103c76103c2366004611b57565b610fe8565b60405161017c9190611f4e565b6008546101ad906001600160a01b031681565b60006001600160e01b031982166380ac58cd60e01b148061041857506001600160e01b03198216635b5e139f60e01b145b8061043357506301ffc9a760e01b6001600160e01b03198316145b92915050565b60606000805461044890611ffe565b80601f016020809104026020016040519081016040528092919081815260200182805461047490611ffe565b80156104c15780601f10610496576101008083540402835291602001916104c1565b820191906000526020600020905b8154815290600101906020018083116104a457829003601f168201915b5050505050905090565b60006104d68261125d565b506000908152600460205260409020546001600160a01b031690565b60006104fd82610668565b9050806001600160a01b0316836001600160a01b03160361056f5760405162461bcd60e51b815260206004820152602160248201527f4552433732313a20617070726f76616c20746f2063757272656e74206f776e656044820152603960f91b60648201526084015b60405180910390fd5b336001600160a01b038216148061058b575061058b8133610373565b6105fd5760405162461bcd60e51b815260206004820152603e60248201527f4552433732313a20617070726f76652063616c6c6572206973206e6f7420746f60448201527f6b656e206f776e6572206e6f7220617070726f76656420666f7220616c6c00006064820152608401610566565b61060783836112b0565b505050565b600061061760075490565b905090565b610626338261131e565b6106425760405162461bcd60e51b815260040161056690612038565b61060783838361139c565b61060783838360405180602001604052806000815250610abd565b6000818152600260205260408120546001600160a01b0316806104335760405162461bcd60e51b8152602060048201526018602482015277115490cdcc8c4e881a5b9d985b1a59081d1bdad95b88125160421b6044820152606401610566565b60006001600160a01b0382166107325760405162461bcd60e51b815260206004820152602960248201527f4552433732313a2061646472657373207a65726f206973206e6f7420612076616044820152683634b21037bbb732b960b91b6064820152608401610566565b506001600160a01b031660009081526003602052604090205490565b610758338561131e565b6107a45760405162461bcd60e51b815260206004820181905260248201527f43616c6c6572206973206e6f74206f776e6572206e6f7220617070726f7665646044820152606401610566565b6107ad84611543565b6107f05760405162461bcd60e51b8152602060048201526014602482015273105cdcd95d08191bd95cc81b9bdd08195e1a5cdd60621b6044820152606401610566565b600084815260096020526040902060048082018054869260ff1990911690600190849081111561082257610822611d9b565b02179055506005810161083584826120d4565b506006810161084483826120d4565b506007810180546001600160a01b03191633908117909155426008830181905560405187917fe2e95e137a527a41ce83a114cc9a8cc1be1a6ecbc87b677094a5b35c2f324a9c9161089a91899189918991612194565b60405180910390a35050505050565b60606001805461044890611ffe565b60008060006108c684611543565b6109125760405162461bcd60e51b815260206004820152601d60248201527f4d65646963696e6520626174636820646f6573206e6f742065786973740000006044820152606401610566565b6000848152600a6020908152604080832054600b9092529091205461093686610668565b9250925092509193909250565b61094e338383611560565b5050565b600960205260009081526040902080546001820154600283015460038401546004850154600586018054959660ff9586169694959394939092169261099690611ffe565b80601f01602080910402602001604051908101604052809291908181526020018280546109c290611ffe565b8015610a0f5780601f106109e457610100808354040283529160200191610a0f565b820191906000526020600020905b8154815290600101906020018083116109f257829003601f168201915b505050505090806006018054610a2490611ffe565b80601f0160208091040260200160405190810160405280929190818152602001828054610a5090611ffe565b8015610a9d5780601f10610a7257610100808354040283529160200191610a9d565b820191906000526020600020905b815481529060010190602001808311610a8057829003601f168201915b50505050600783015460089093015491926001600160a01b031691905089565b610ac7338361131e565b610ae35760405162461bcd60e51b815260040161056690612038565b610aef8484848461162e565b50505050565b6060610b008261125d565b60008281526006602052604081208054610b1990611ffe565b80601f0160208091040260200160405190810160405280929190818152602001828054610b4590611ffe565b8015610b925780601f10610b6757610100808354040283529160200191610b92565b820191906000526020600020905b815481529060010190602001808311610b7557829003601f168201915b505050505090506000610bb060408051602081019091526000815290565b90508051600003610bc2575092915050565b815115610bf4578082604051602001610bdc9291906121d8565b60405160208183030381529060405292505050919050565b610bfd84611661565b949350505050565b6008546000906001600160a01b03163314610c6c5760405162461bcd60e51b815260206004820152602160248201527f4f6e6c7920686f73706974616c2061646d696e2063616e2063616c6c207468696044820152607360f81b6064820152608401610566565b60008311610cc75760405162461bcd60e51b815260206004820152602260248201527f5175616e74697479206d7573742062652067726561746572207468616e207a65604482015261726f60f01b6064820152608401610566565b610cd5600780546001019055565b6000610ce060075490565b600854909150610cf9906001600160a01b0316826116d5565b610d038186611814565b6000818152600a60209081526040808320879055600b825291829020869055815161012081019092528282528101846001811115610d4357610d43611d9b565b8152602081018690526040810186905260600160008152604080516020818101835260008083528185019290925282518082018452828152838501526060840182905260809093018190528481526009835220825181559082015160018083018054909160ff19909116908381811115610dbf57610dbf611d9b565b0217905550604082015181600201556060820151816003015560808201518160040160006101000a81548160ff02191690836004811115610e0257610e02611d9b565b021790555060a08201516005820190610e1b90826120d4565b5060c08201516006820190610e3090826120d4565b5060e08201516007820180546001600160a01b0319166001600160a01b03928316179055610100909201516008918201555460405191169082907fc90063f84611a285d912372bae6bbd06a42727ab7e72cf08bec7cf69a6661f4290610e9b90879089908b90612207565b60405180910390a3949350505050565b610eb5338361131e565b610f015760405162461bcd60e51b815260206004820181905260248201527f43616c6c6572206973206e6f74206f776e6572206e6f7220617070726f7665646044820152606401610566565b6000828152600b6020526040902054811115610f5f5760405162461bcd60e51b815260206004820152601f60248201527f496e73756666696369656e74207175616e7469747920617661696c61626c65006044820152606401610566565b6000828152600b602052604081208054839290610f7d90849061224c565b90915550506000828152600b602081815260408084205460098352938190206003018490559190525183917fda2d69970b45b918fccb519f882d43224beffd3941f63348fd4c823052ac9b9991610fdc91858252602082015260400190565b60405180910390a25050565b604080516101208101825260008082526020820181905291810182905260608082018390526080820183905260a0820181905260c082015260e0810182905261010081019190915261103982611543565b61107c5760405162461bcd60e51b8152602060048201526014602482015273105cdcd95d08191bd95cc81b9bdd08195e1a5cdd60621b6044820152606401610566565b6000828152600960209081526040918290208251610120810190935280548352600180820154919284019160ff16908111156110ba576110ba611d9b565b60018111156110cb576110cb611d9b565b8152600282015460208201526003820154604082015260048083015460609092019160ff169081111561110057611100611d9b565b600481111561111157611111611d9b565b815260200160058201805461112590611ffe565b80601f016020809104026020016040519081016040528092919081815260200182805461115190611ffe565b801561119e5780601f106111735761010080835404028352916020019161119e565b820191906000526020600020905b81548152906001019060200180831161118157829003601f168201915b505050505081526020016006820180546111b790611ffe565b80601f01602080910402602001604051908101604052809291908181526020018280546111e390611ffe565b80156112305780601f1061120557610100808354040283529160200191611230565b820191906000526020600020905b81548152906001019060200180831161121357829003601f168201915b505050918352505060078201546001600160a01b0316602082015260089091015460409091015292915050565b61126681611543565b6112ad5760405162461bcd60e51b8152602060048201526018602482015277115490cdcc8c4e881a5b9d985b1a59081d1bdad95b88125160421b6044820152606401610566565b50565b600081815260046020526040902080546001600160a01b0319166001600160a01b03841690811790915581906112e582610668565b6001600160a01b03167f8c5be1e5ebec7d5bd14f71427d1e84f3dd0314c0f7b2291e5b200ac8c7c3b92560405160405180910390a45050565b60008061132a83610668565b9050806001600160a01b0316846001600160a01b0316148061137157506001600160a01b0380821660009081526005602090815260408083209388168352929052205460ff165b80610bfd5750836001600160a01b031661138a846104cb565b6001600160a01b031614949350505050565b826001600160a01b03166113af82610668565b6001600160a01b0316146114135760405162461bcd60e51b815260206004820152602560248201527f4552433732313a207472616e736665722066726f6d20696e636f72726563742060448201526437bbb732b960d91b6064820152608401610566565b6001600160a01b0382166114755760405162461bcd60e51b8152602060048201526024808201527f4552433732313a207472616e7366657220746f20746865207a65726f206164646044820152637265737360e01b6064820152608401610566565b611480838383611898565b61148b6000826112b0565b6001600160a01b03831660009081526003602052604081208054600192906114b490849061224c565b90915550506001600160a01b03821660009081526003602052604081208054600192906114e290849061225f565b909155505060008181526002602052604080822080546001600160a01b0319166001600160a01b0386811691821790925591518493918716917fddf252ad1be2c89b69c2b068fc378daa952ba7f163c4a11628f55a4df523b3ef91a4505050565b6000908152600260205260409020546001600160a01b0316151590565b816001600160a01b0316836001600160a01b0316036115c15760405162461bcd60e51b815260206004820152601960248201527f4552433732313a20617070726f766520746f2063616c6c6572000000000000006044820152606401610566565b6001600160a01b03838116600081815260056020908152604080832094871680845294825291829020805460ff191686151590811790915591519182527f17307eab39ab6107e8899845ad3d59bd9653f200f220920489ca2b5937696c31910160405180910390a3505050565b61163984848461139c565b611645848484846118bf565b610aef5760405162461bcd60e51b815260040161056690612272565b606061166c8261125d565b600061168360408051602081019091526000815290565b905060008151116116a357604051806020016040528060008152506116ce565b806116ad846119c0565b6040516020016116be9291906121d8565b6040516020818303038152906040525b9392505050565b6001600160a01b03821661172b5760405162461bcd60e51b815260206004820181905260248201527f4552433732313a206d696e7420746f20746865207a65726f20616464726573736044820152606401610566565b61173481611543565b156117815760405162461bcd60e51b815260206004820152601c60248201527f4552433732313a20746f6b656e20616c7265616479206d696e746564000000006044820152606401610566565b61178d60008383611898565b6001600160a01b03821660009081526003602052604081208054600192906117b690849061225f565b909155505060008181526002602052604080822080546001600160a01b0319166001600160a01b03861690811790915590518392907fddf252ad1be2c89b69c2b068fc378daa952ba7f163c4a11628f55a4df523b3ef908290a45050565b61181d82611543565b6118805760405162461bcd60e51b815260206004820152602e60248201527f45524337323155524953746f726167653a2055524920736574206f66206e6f6e60448201526d32bc34b9ba32b73a103a37b5b2b760911b6064820152608401610566565b600082815260066020526040902061060782826120d4565b6001600160a01b03831615806118b557506001600160a01b038216155b1561060757505050565b60006001600160a01b0384163b156119b557604051630a85bd0160e11b81526001600160a01b0385169063150b7a02906119039033908990889088906004016122c4565b6020604051808303816000875af192505050801561193e575060408051601f3d908101601f1916820190925261193b91810190612301565b60015b61199b573d80801561196c576040519150601f19603f3d011682016040523d82523d6000602084013e611971565b606091505b5080516000036119935760405162461bcd60e51b815260040161056690612272565b805181602001fd5b6001600160e01b031916630a85bd0160e11b149050610bfd565b506001949350505050565b6060816000036119e75750506040805180820190915260018152600360fc1b602082015290565b8160005b8115611a1157806119fb8161231e565b9150611a0a9050600a8361234d565b91506119eb565b60008167ffffffffffffffff811115611a2c57611a2c611c0d565b6040519080825280601f01601f191660200182016040528015611a56576020820181803683370190505b5090505b8415610bfd57611a6b60018361224c565b9150611a78600a86612361565b611a8390603061225f565b60f81b818381518110611a9857611a98612375565b60200101906001600160f81b031916908160001a905350611aba600a8661234d565b9450611a5a565b6001600160e01b0319811681146112ad57600080fd5b600060208284031215611ae957600080fd5b81356116ce81611ac1565b60005b83811015611b0f578181015183820152602001611af7565b50506000910152565b60008151808452611b30816020860160208601611af4565b601f01601f19169290920160200192915050565b6020815260006116ce6020830184611b18565b600060208284031215611b6957600080fd5b5035919050565b80356001600160a01b0381168114611b8757600080fd5b919050565b60008060408385031215611b9f57600080fd5b611ba883611b70565b946020939093013593505050565b600080600060608486031215611bcb57600080fd5b611bd484611b70565b9250611be260208501611b70565b9150604084013590509250925092565b600060208284031215611c0457600080fd5b6116ce82611b70565b634e487b7160e01b600052604160045260246000fd5b600067ffffffffffffffff80841115611c3e57611c3e611c0d565b604051601f8501601f19908116603f01168101908282118183101715611c6657611c66611c0d565b81604052809350858152868686011115611c7f57600080fd5b858560208301376000602087830101525050509392505050565b600082601f830112611caa57600080fd5b6116ce83833560208501611c23565b60008060008060808587031215611ccf57600080fd5b84359350602085013560058110611ce557600080fd5b9250604085013567ffffffffffffffff80821115611d0257600080fd5b611d0e88838901611c99565b93506060870135915080821115611d2457600080fd5b50611d3187828801611c99565b91505092959194509250565b60008060408385031215611d5057600080fd5b50508035926020909101359150565b60008060408385031215611d7257600080fd5b611d7b83611b70565b915060208301358015158114611d9057600080fd5b809150509250929050565b634e487b7160e01b600052602160045260246000fd5b60028110611dc157611dc1611d9b565b9052565b60058110611dc157611dc1611d9b565b60006101208b8352611dea602084018c611db1565b896040840152886060840152611e036080840189611dc5565b8060a0840152611e1581840188611b18565b905082810360c0840152611e298187611b18565b6001600160a01b039590951660e084015250506101000152979650505050505050565b60008060008060808587031215611e6257600080fd5b611e6b85611b70565b9350611e7960208601611b70565b925060408501359150606085013567ffffffffffffffff811115611e9c57600080fd5b8501601f81018713611ead57600080fd5b611d3187823560208401611c23565b600080600060608486031215611ed157600080fd5b833567ffffffffffffffff811115611ee857600080fd5b611ef486828701611c99565b93505060208401359150604084013560028110611f1057600080fd5b809150509250925092565b60008060408385031215611f2e57600080fd5b611f3783611b70565b9150611f4560208401611b70565b90509250929050565b602081528151602082015260006020830151611f6d6040840182611db1565b5060408301516060830152606083015160808301526080830151611f9460a0840182611dc5565b5060a08301516101208060c0850152611fb1610140850183611b18565b915060c0850151601f198584030160e0860152611fce8382611b18565b92505060e0850151610100611fed818701836001600160a01b03169052565b959095015193019290925250919050565b600181811c9082168061201257607f821691505b60208210810361203257634e487b7160e01b600052602260045260246000fd5b50919050565b6020808252602e908201527f4552433732313a2063616c6c6572206973206e6f7420746f6b656e206f776e6560408201526d1c881b9bdc88185c1c1c9bdd995960921b606082015260800190565b601f82111561060757600081815260208120601f850160051c810160208610156120ad5750805b601f850160051c820191505b818110156120cc578281556001016120b9565b505050505050565b815167ffffffffffffffff8111156120ee576120ee611c0d565b612102816120fc8454611ffe565b84612086565b602080601f831160018114612137576000841561211f5750858301515b600019600386901b1c1916600185901b1785556120cc565b600085815260208120601f198616915b8281101561216657888601518255948401946001909101908401612147565b50858210156121845787850151600019600388901b60f8161c191681555b5050505050600190811b01905550565b61219e8186611dc5565b6080602082015260006121b46080830186611b18565b82810360408401526121c68186611b18565b91505082606083015295945050505050565b600083516121ea818460208801611af4565b8351908301906121fe818360208801611af4565b01949350505050565b6122118185611db1565b82602082015260606040820152600061222d6060830184611b18565b95945050505050565b634e487b7160e01b600052601160045260246000fd5b8181038181111561043357610433612236565b8082018082111561043357610433612236565b60208082526032908201527f4552433732313a207472616e7366657220746f206e6f6e20455243373231526560408201527131b2b4bb32b91034b6b83632b6b2b73a32b960711b606082015260800190565b6001600160a01b03858116825284166020820152604081018390526080606082018190526000906122f790830184611b18565b9695505050505050565b60006020828403121561231357600080fd5b81516116ce81611ac1565b60006001820161233057612330612236565b5060010190565b634e487b7160e01b600052601260045260246000fd5b60008261235c5761235c612337565b500490565b60008261237057612370612337565b500690565b634e487b7160e01b600052603260045260246000fdfea2646970667358221220cd409376d940ccfa0c9451cf68f0037adcc4fe5904c5294cac8874c0148596a364736f6c63430008110033",
  "linkReferences": {},
  "deployedLinkReferences": {}
}